{
  "contractName": "AdditionContract",
  "abi": [
    {
      "constant": true,
      "inputs": [],
      "name": "state",
      "outputs": [
        {
          "internalType": "uint256",
          "name": "",
          "type": "uint256"
        }
      ],
      "payable": false,
      "stateMutability": "view",
      "type": "function"
    },
    {
      "constant": false,
      "inputs": [
        {
          "internalType": "uint256",
          "name": "value1",
          "type": "uint256"
        },
        {
          "internalType": "uint256",
          "name": "value2",
          "type": "uint256"
        }
      ],
      "name": "add",
      "outputs": [],
      "payable": false,
      "stateMutability": "nonpayable",
      "type": "function"
    },
    {
      "constant": true,
      "inputs": [],
      "name": "getState",
      "outputs": [
        {
          "internalType": "uint256",
          "name": "",
          "type": "uint256"
        }
      ],
      "payable": false,
      "stateMutability": "view",
      "type": "function"
    }
  ],
  "bytecode": "0x60806040526000805534801561001457600080fd5b5060ff806100236000396000f3fe6080604052348015600f57600080fd5b5060043610603c5760003560e01c80631865c57d146041578063771602f714605d578063c19d93fb146092575b600080fd5b604760ae565b6040518082815260200191505060405180910390f35b609060048036036040811015607157600080fd5b81019080803590602001909291908035906020019092919050505060b7565b005b609860c4565b6040518082815260200191505060405180910390f35b60008054905090565b8082016000819055505050565b6000548156fea265627a7a72315820d2c89e60b6af92fef4604329883b784e394175806b045272e29e616ceb5529fa64736f6c63430005100032",
  "source": "pragma solidity ^0.5.16;\n\ncontract AdditionContract {\n  uint public state = 0;\n\n  function add(uint value1, uint value2) public {\n    state = value1 + value2;\n  }\n\n  function getState() public view returns (uint) {\n      return state;\n  }\n}",
  "sourcePath": "/mnt/c/Users/gggui/Documents/VANET/VanetBlockChain/blockchain/python_code/contracts/AdditionContract.sol",
  "compiler": {
    "name": "solc",
    "version": "0.5.16+commit.9c3226ce.Emscripten.clang"
  },
  "schemaVersion": "3.3.2",
  "updatedAt": "2020-11-13T07:16:43.286Z",
  "devdoc": {
    "methods": {}
  },
  "userdoc": {
    "methods": {}
  }
}