{
  "contractName": "CAContract",
  "abi": [
    {
      "constant": false,
      "inputs": [
        {
          "internalType": "uint256",
          "name": "message",
          "type": "uint256"
        },
        {
          "internalType": "uint256",
          "name": "senderId",
          "type": "uint256"
        },
        {
          "internalType": "uint256",
          "name": "receiverId",
          "type": "uint256"
        }
      ],
      "name": "performTransaction",
      "outputs": [
        {
          "internalType": "contract TransactionContract",
          "name": "",
          "type": "address"
        }
      ],
      "payable": false,
      "stateMutability": "nonpayable",
      "type": "function"
    }
  ],
  "bytecode": "0x60806040526000805534801561001457600080fd5b5061032f806100246000396000f3fe608060405234801561001057600080fd5b506004361061002b5760003560e01c8063546cfcee14610030575b600080fd5b6100706004803603606081101561004657600080fd5b810190808035906020019092919080359060200190929190803590602001909291905050506100b2565b604051808273ffffffffffffffffffffffffffffffffffffffff1673ffffffffffffffffffffffffffffffffffffffff16815260200191505060405180910390f35b600080600081546001019190508190555060008484846000546040516100d790610120565b80858152602001848152602001838152602001828152602001945050505050604051809103906000f080158015610112573d6000803e3d6000fd5b509050809150509392505050565b6101cd8061012e8339019056fe608060405234801561001057600080fd5b506040516101cd3803806101cd8339818101604052608081101561003357600080fd5b810190808051906020019092919080519060200190929190805190602001909291908051906020019092919050505061006a6100c5565b60405180606001604052808581526020018481526020018681525090508060008084815260200190815260200160002060008201518160000155602082015181600101556040820151816002015590505050505050506100e6565b60405180606001604052806000815260200160008152602001600081525090565b60d9806100f46000396000f3fe6080604052348015600f57600080fd5b506004361060285760003560e01c80639ace38c214602d575b600080fd5b605660048036036020811015604157600080fd5b8101908080359060200190929190505050607a565b60405180848152602001838152602001828152602001935050505060405180910390f35b6000602052806000526040600020600091509050806000015490806001015490806002015490508356fea265627a7a7231582031de31479d2131c5728dd776bb5e19b452ec9fbfbb4e9ebceabab3dee9c4d77664736f6c63430005100032a265627a7a723158208994b172790addef81ce388aed90fcad91c36ebcb9b63f6e0f3d4aa853cb560d64736f6c63430005100032",
  "source": "pragma solidity >=0.4.22;\n\nimport \"./TransactionContract.sol\";\n\ncontract CAContract {\n    uint256 counter = 0;\n\n    function performTransaction(\n        uint message,\n        uint senderId,\n         uint receiverId\n    ) public returns (TransactionContract) {\n        ++counter;\n        TransactionContract contr = new TransactionContract(message, senderId, receiverId, counter);\n        return contr;\n    }\n}\n",
  "sourcePath": "/mnt/c/Users/gggui/Documents/VANET/VanetBlockChain/blockchain/python_code/contracts/CAContract.sol",
  "compiler": {
    "name": "solc",
    "version": "0.5.16+commit.9c3226ce.Emscripten.clang"
  },
  "schemaVersion": "3.3.2",
  "updatedAt": "2020-11-13T07:59:08.646Z",
  "devdoc": {
    "methods": {}
  },
  "userdoc": {
    "methods": {}
  }
}