{
  "contractName": "Contract",
  "abi": [
    {
      "inputs": [
        {
          "internalType": "string",
          "name": "message",
          "type": "string"
        },
        {
          "internalType": "string",
          "name": "senderID",
          "type": "string"
        },
        {
          "internalType": "string",
          "name": "receiverID",
          "type": "string"
        },
        {
          "internalType": "uint256",
          "name": "ids",
          "type": "uint256"
        }
      ],
      "payable": false,
      "stateMutability": "nonpayable",
      "type": "constructor"
    },
    {
      "constant": true,
      "inputs": [
        {
          "internalType": "uint256",
          "name": "",
          "type": "uint256"
        }
      ],
      "name": "transactions",
      "outputs": [
        {
          "internalType": "string",
          "name": "senderID",
          "type": "string"
        },
        {
          "internalType": "string",
          "name": "receiverID",
          "type": "string"
        },
        {
          "internalType": "string",
          "name": "message",
          "type": "string"
        }
      ],
      "payable": false,
      "stateMutability": "view",
      "type": "function"
    }
  ],
  "bytecode": "0x608060405234801561001057600080fd5b506040516107b03803806107b08339818101604052608081101561003357600080fd5b810190808051604051939291908464010000000082111561005357600080fd5b8382019150602082018581111561006957600080fd5b825186600182028301116401000000008211171561008657600080fd5b8083526020830192505050908051906020019080838360005b838110156100ba57808201518184015260208101905061009f565b50505050905090810190601f1680156100e75780820380516001836020036101000a031916815260200191505b506040526020018051604051939291908464010000000082111561010a57600080fd5b8382019150602082018581111561012057600080fd5b825186600182028301116401000000008211171561013d57600080fd5b8083526020830192505050908051906020019080838360005b83811015610171578082015181840152602081019050610156565b50505050905090810190601f16801561019e5780820380516001836020036101000a031916815260200191505b50604052602001805160405193929190846401000000008211156101c157600080fd5b838201915060208201858111156101d757600080fd5b82518660018202830111640100000000821117156101f457600080fd5b8083526020830192505050908051906020019080838360005b8381101561022857808201518184015260208101905061020d565b50505050905090810190601f1680156102555780820380516001836020036101000a031916815260200191505b5060405260200180519060200190929190505050610271610305565b60405180606001604052808581526020018481526020018681525090508060008084815260200190815260200160002060008201518160000190805190602001906102bd929190610326565b5060208201518160010190805190602001906102da929190610326565b5060408201518160020190805190602001906102f7929190610326565b5090505050505050506103cb565b60405180606001604052806060815260200160608152602001606081525090565b828054600181600116156101000203166002900490600052602060002090601f016020900481019282601f1061036757805160ff1916838001178555610395565b82800160010185558215610395579182015b82811115610394578251825591602001919060010190610379565b5b5090506103a291906103a6565b5090565b6103c891905b808211156103c45760008160009055506001016103ac565b5090565b90565b6103d6806103da6000396000f3fe608060405234801561001057600080fd5b506004361061002b5760003560e01c80639ace38c214610030575b600080fd5b61005c6004803603602081101561004657600080fd5b81019080803590602001909291905050506101af565b60405180806020018060200180602001848103845287818151815260200191508051906020019080838360005b838110156100a4578082015181840152602081019050610089565b50505050905090810190601f1680156100d15780820380516001836020036101000a031916815260200191505b50848103835286818151815260200191508051906020019080838360005b8381101561010a5780820151818401526020810190506100ef565b50505050905090810190601f1680156101375780820380516001836020036101000a031916815260200191505b50848103825285818151815260200191508051906020019080838360005b83811015610170578082015181840152602081019050610155565b50505050905090810190601f16801561019d5780820380516001836020036101000a031916815260200191505b50965050505050505060405180910390f35b6000602052806000526040600020600091509050806000018054600181600116156101000203166002900480601f01602080910402602001604051908101604052809291908181526020018280546001816001161561010002031660029004801561025b5780601f106102305761010080835404028352916020019161025b565b820191906000526020600020905b81548152906001019060200180831161023e57829003601f168201915b505050505090806001018054600181600116156101000203166002900480601f0160208091040260200160405190810160405280929190818152602001828054600181600116156101000203166002900480156102f95780601f106102ce576101008083540402835291602001916102f9565b820191906000526020600020905b8154815290600101906020018083116102dc57829003601f168201915b505050505090806002018054600181600116156101000203166002900480601f0160208091040260200160405190810160405280929190818152602001828054600181600116156101000203166002900480156103975780601f1061036c57610100808354040283529160200191610397565b820191906000526020600020905b81548152906001019060200180831161037a57829003601f168201915b505050505090508356fea265627a7a7231582079c151fba4ee76fbf8fc6158937bba83467bbae60f502ae5505918e2ce8e7cac64736f6c63430005100032",
  "source": "pragma solidity >=0.4.22;\n\ncontract Contract {\n    struct Message_info {\n        string senderID;\n        string receiverID;\n        string message;\n    }\n\n    mapping(uint256 => Message_info) public transactions;\n\n    constructor(\n        string memory message,\n        string memory senderID,\n        string memory receiverID,\n        uint256 ids\n    ) public {\n        Message_info memory received = Message_info({\n            senderID: senderID,\n            receiverID: receiverID,\n            message: message\n        });\n        transactions[ids] = received;\n    }\n}\n",
  "sourcePath": "/mnt/c/Users/gggui/Documents/VANET/VanetBlockChain/blockchain/python_code/contracts/TransactionContract.sol",
  "compiler": {
    "name": "solc",
    "version": "0.5.16+commit.9c3226ce.Emscripten.clang"
  },
  "schemaVersion": "3.3.2",
  "updatedAt": "2020-11-13T07:16:43.293Z",
  "devdoc": {
    "methods": {}
  },
  "userdoc": {
    "methods": {}
  }
}