{
  "contractName": "Parent",
  "abi": [
    {
      "constant": false,
      "inputs": [
        {
          "internalType": "string",
          "name": "message",
          "type": "string"
        },
        {
          "internalType": "string",
          "name": "senderId",
          "type": "string"
        },
        {
          "internalType": "string",
          "name": "receiverId",
          "type": "string"
        }
      ],
      "name": "performTransaction",
      "outputs": [
        {
          "internalType": "contract Contract",
          "name": "",
          "type": "address"
        }
      ],
      "payable": false,
      "stateMutability": "nonpayable",
      "type": "function"
    }
  ],
  "bytecode": "0x60806040526000805534801561001457600080fd5b50610be8806100246000396000f3fe608060405234801561001057600080fd5b506004361061002b5760003560e01c80634e7185d214610030575b600080fd5b6102176004803603606081101561004657600080fd5b810190808035906020019064010000000081111561006357600080fd5b82018360208201111561007557600080fd5b8035906020019184600183028401116401000000008311171561009757600080fd5b91908080601f016020809104026020016040519081016040528093929190818152602001838380828437600081840152601f19601f820116905080830192505050505050509192919290803590602001906401000000008111156100fa57600080fd5b82018360208201111561010c57600080fd5b8035906020019184600183028401116401000000008311171561012e57600080fd5b91908080601f016020809104026020016040519081016040528093929190818152602001838380828437600081840152601f19601f8201169050808301925050505050505091929192908035906020019064010000000081111561019157600080fd5b8201836020820111156101a357600080fd5b803590602001918460018302840111640100000000831117156101c557600080fd5b91908080601f016020809104026020016040519081016040528093929190818152602001838380828437600081840152601f19601f820116905080830192505050505050509192919290505050610259565b604051808273ffffffffffffffffffffffffffffffffffffffff1673ffffffffffffffffffffffffffffffffffffffff16815260200191505060405180910390f35b6000806000815460010191905081905550600084848460005460405161027e906103f6565b80806020018060200180602001858152602001848103845288818151815260200191508051906020019080838360005b838110156102c95780820151818401526020810190506102ae565b50505050905090810190601f1680156102f65780820380516001836020036101000a031916815260200191505b50848103835287818151815260200191508051906020019080838360005b8381101561032f578082015181840152602081019050610314565b50505050905090810190601f16801561035c5780820380516001836020036101000a031916815260200191505b50848103825286818151815260200191508051906020019080838360005b8381101561039557808201518184015260208101905061037a565b50505050905090810190601f1680156103c25780820380516001836020036101000a031916815260200191505b50975050505050505050604051809103906000f0801580156103e8573d6000803e3d6000fd5b509050809150509392505050565b6107b0806104048339019056fe608060405234801561001057600080fd5b506040516107b03803806107b08339818101604052608081101561003357600080fd5b810190808051604051939291908464010000000082111561005357600080fd5b8382019150602082018581111561006957600080fd5b825186600182028301116401000000008211171561008657600080fd5b8083526020830192505050908051906020019080838360005b838110156100ba57808201518184015260208101905061009f565b50505050905090810190601f1680156100e75780820380516001836020036101000a031916815260200191505b506040526020018051604051939291908464010000000082111561010a57600080fd5b8382019150602082018581111561012057600080fd5b825186600182028301116401000000008211171561013d57600080fd5b8083526020830192505050908051906020019080838360005b83811015610171578082015181840152602081019050610156565b50505050905090810190601f16801561019e5780820380516001836020036101000a031916815260200191505b50604052602001805160405193929190846401000000008211156101c157600080fd5b838201915060208201858111156101d757600080fd5b82518660018202830111640100000000821117156101f457600080fd5b8083526020830192505050908051906020019080838360005b8381101561022857808201518184015260208101905061020d565b50505050905090810190601f1680156102555780820380516001836020036101000a031916815260200191505b5060405260200180519060200190929190505050610271610305565b60405180606001604052808581526020018481526020018681525090508060008084815260200190815260200160002060008201518160000190805190602001906102bd929190610326565b5060208201518160010190805190602001906102da929190610326565b5060408201518160020190805190602001906102f7929190610326565b5090505050505050506103cb565b60405180606001604052806060815260200160608152602001606081525090565b828054600181600116156101000203166002900490600052602060002090601f016020900481019282601f1061036757805160ff1916838001178555610395565b82800160010185558215610395579182015b82811115610394578251825591602001919060010190610379565b5b5090506103a291906103a6565b5090565b6103c891905b808211156103c45760008160009055506001016103ac565b5090565b90565b6103d6806103da6000396000f3fe608060405234801561001057600080fd5b506004361061002b5760003560e01c80639ace38c214610030575b600080fd5b61005c6004803603602081101561004657600080fd5b81019080803590602001909291905050506101af565b60405180806020018060200180602001848103845287818151815260200191508051906020019080838360005b838110156100a4578082015181840152602081019050610089565b50505050905090810190601f1680156100d15780820380516001836020036101000a031916815260200191505b50848103835286818151815260200191508051906020019080838360005b8381101561010a5780820151818401526020810190506100ef565b50505050905090810190601f1680156101375780820380516001836020036101000a031916815260200191505b50848103825285818151815260200191508051906020019080838360005b83811015610170578082015181840152602081019050610155565b50505050905090810190601f16801561019d5780820380516001836020036101000a031916815260200191505b50965050505050505060405180910390f35b6000602052806000526040600020600091509050806000018054600181600116156101000203166002900480601f01602080910402602001604051908101604052809291908181526020018280546001816001161561010002031660029004801561025b5780601f106102305761010080835404028352916020019161025b565b820191906000526020600020905b81548152906001019060200180831161023e57829003601f168201915b505050505090806001018054600181600116156101000203166002900480601f0160208091040260200160405190810160405280929190818152602001828054600181600116156101000203166002900480156102f95780601f106102ce576101008083540402835291602001916102f9565b820191906000526020600020905b8154815290600101906020018083116102dc57829003601f168201915b505050505090806002018054600181600116156101000203166002900480601f0160208091040260200160405190810160405280929190818152602001828054600181600116156101000203166002900480156103975780601f1061036c57610100808354040283529160200191610397565b820191906000526020600020905b81548152906001019060200180831161037a57829003601f168201915b505050505090508356fea265627a7a7231582079c151fba4ee76fbf8fc6158937bba83467bbae60f502ae5505918e2ce8e7cac64736f6c63430005100032a265627a7a7231582060520a1ce65c50fd93a38abd906af46adff09f1362303c25765e45c4495943b064736f6c63430005100032",
  "source": "pragma solidity >=0.4.22;\n\nimport \"./TransactionContract.sol\";\n\ncontract Parent {\n    uint256 counter = 0;\n\n    function performTransaction(\n        string memory message,\n        string memory senderId,\n        string memory receiverId\n    ) public returns (Contract) {\n        ++counter;\n        Contract contr = new Contract(message, senderId, receiverId, counter);\n        return contr;\n    }\n}\n",
  "sourcePath": "/mnt/c/Users/gggui/Documents/VANET/VanetBlockChain/blockchain/python_code/contracts/CAContract.sol",
  "compiler": {
    "name": "solc",
    "version": "0.5.16+commit.9c3226ce.Emscripten.clang"
  },
  "schemaVersion": "3.3.2",
  "updatedAt": "2020-11-13T07:16:43.287Z",
  "devdoc": {
    "methods": {}
  },
  "userdoc": {
    "methods": {}
  }
}