{
  "contractName": "TransactionContract",
  "abi": [
    {
      "inputs": [
        {
          "internalType": "uint256",
          "name": "message",
          "type": "uint256"
        },
        {
          "internalType": "uint256",
          "name": "senderID",
          "type": "uint256"
        },
        {
          "internalType": "uint256",
          "name": "receiverID",
          "type": "uint256"
        },
        {
          "internalType": "uint256",
          "name": "ids",
          "type": "uint256"
        }
      ],
      "payable": false,
      "stateMutability": "nonpayable",
      "type": "constructor"
    },
    {
      "constant": true,
      "inputs": [
        {
          "internalType": "uint256",
          "name": "",
          "type": "uint256"
        }
      ],
      "name": "transactions",
      "outputs": [
        {
          "internalType": "uint256",
          "name": "senderID",
          "type": "uint256"
        },
        {
          "internalType": "uint256",
          "name": "receiverID",
          "type": "uint256"
        },
        {
          "internalType": "uint256",
          "name": "message",
          "type": "uint256"
        }
      ],
      "payable": false,
      "stateMutability": "view",
      "type": "function"
    }
  ],
  "bytecode": "0x608060405234801561001057600080fd5b506040516101cd3803806101cd8339818101604052608081101561003357600080fd5b810190808051906020019092919080519060200190929190805190602001909291908051906020019092919050505061006a6100c5565b60405180606001604052808581526020018481526020018681525090508060008084815260200190815260200160002060008201518160000155602082015181600101556040820151816002015590505050505050506100e6565b60405180606001604052806000815260200160008152602001600081525090565b60d9806100f46000396000f3fe6080604052348015600f57600080fd5b506004361060285760003560e01c80639ace38c214602d575b600080fd5b605660048036036020811015604157600080fd5b8101908080359060200190929190505050607a565b60405180848152602001838152602001828152602001935050505060405180910390f35b6000602052806000526040600020600091509050806000015490806001015490806002015490508356fea265627a7a7231582031de31479d2131c5728dd776bb5e19b452ec9fbfbb4e9ebceabab3dee9c4d77664736f6c63430005100032",
  "source": "pragma solidity >=0.4.22;\n\ncontract TransactionContract {\n    struct Message_info {\n        uint senderID;\n        uint receiverID;\n        uint message;\n    }\n\n    mapping(uint256 => Message_info) public transactions;\n\n    constructor(\n        uint  message,\n        uint  senderID,\n        uint  receiverID,\n        uint256 ids\n    ) public {\n        Message_info memory received = Message_info({\n            senderID: senderID,\n            receiverID: receiverID,\n            message: message\n        });\n        transactions[ids] = received;\n    }\n}\n",
  "sourcePath": "/mnt/c/Users/gggui/Documents/VANET/VanetBlockChain/blockchain/python_code/contracts/TransactionContract.sol",
  "compiler": {
    "name": "solc",
    "version": "0.5.16+commit.9c3226ce.Emscripten.clang"
  },
  "schemaVersion": "3.3.2",
  "updatedAt": "2020-11-13T07:59:08.648Z",
  "devdoc": {
    "methods": {}
  },
  "userdoc": {
    "methods": {}
  }
}